{
  "_format": "hh-sol-artifact-1",
  "contractName": "VotingContract",
  "sourceName": "contracts/VotingContract.sol",
  "abi": [
    {
      "inputs": [
        {
          "internalType": "string",
          "name": "_votingTitle",
          "type": "string"
        }
      ],
      "stateMutability": "nonpayable",
      "type": "constructor"
    },
    {
      "anonymous": false,
      "inputs": [
        {
          "indexed": true,
          "internalType": "uint256",
          "name": "candidateId",
          "type": "uint256"
        },
        {
          "indexed": false,
          "internalType": "string",
          "name": "name",
          "type": "string"
        }
      ],
      "name": "CandidateAdded",
      "type": "event"
    },
    {
      "anonymous": false,
      "inputs": [
        {
          "indexed": true,
          "internalType": "address",
          "name": "voter",
          "type": "address"
        },
        {
          "indexed": true,
          "internalType": "uint256",
          "name": "candidateId",
          "type": "uint256"
        }
      ],
      "name": "VoteCast",
      "type": "event"
    },
    {
      "anonymous": false,
      "inputs": [
        {
          "indexed": true,
          "internalType": "address",
          "name": "voter",
          "type": "address"
        }
      ],
      "name": "VoterRegistered",
      "type": "event"
    },
    {
      "anonymous": false,
      "inputs": [
        {
          "indexed": false,
          "internalType": "bool",
          "name": "isOpen",
          "type": "bool"
        }
      ],
      "name": "VotingStatusChanged",
      "type": "event"
    },
    {
      "inputs": [
        {
          "internalType": "string",
          "name": "_name",
          "type": "string"
        }
      ],
      "name": "addCandidate",
      "outputs": [],
      "stateMutability": "nonpayable",
      "type": "function"
    },
    {
      "inputs": [],
      "name": "candidateCount",
      "outputs": [
        {
          "internalType": "uint256",
          "name": "",
          "type": "uint256"
        }
      ],
      "stateMutability": "view",
      "type": "function"
    },
    {
      "inputs": [
        {
          "internalType": "uint256",
          "name": "",
          "type": "uint256"
        }
      ],
      "name": "candidates",
      "outputs": [
        {
          "internalType": "uint256",
          "name": "id",
          "type": "uint256"
        },
        {
          "internalType": "string",
          "name": "name",
          "type": "string"
        },
        {
          "internalType": "uint256",
          "name": "voteCount",
          "type": "uint256"
        }
      ],
      "stateMutability": "view",
      "type": "function"
    },
    {
      "inputs": [],
      "name": "getAllCandidates",
      "outputs": [
        {
          "internalType": "uint256[]",
          "name": "ids",
          "type": "uint256[]"
        },
        {
          "internalType": "string[]",
          "name": "names",
          "type": "string[]"
        },
        {
          "internalType": "uint256[]",
          "name": "voteCounts",
          "type": "uint256[]"
        }
      ],
      "stateMutability": "view",
      "type": "function"
    },
    {
      "inputs": [
        {
          "internalType": "uint256",
          "name": "_candidateId",
          "type": "uint256"
        }
      ],
      "name": "getCandidate",
      "outputs": [
        {
          "internalType": "uint256",
          "name": "id",
          "type": "uint256"
        },
        {
          "internalType": "string",
          "name": "name",
          "type": "string"
        },
        {
          "internalType": "uint256",
          "name": "voteCount",
          "type": "uint256"
        }
      ],
      "stateMutability": "view",
      "type": "function"
    },
    {
      "inputs": [
        {
          "internalType": "address",
          "name": "_voterAddress",
          "type": "address"
        }
      ],
      "name": "getVoter",
      "outputs": [
        {
          "internalType": "bool",
          "name": "hasVoted",
          "type": "bool"
        },
        {
          "internalType": "uint256",
          "name": "votedCandidateId",
          "type": "uint256"
        },
        {
          "internalType": "bool",
          "name": "isRegistered",
          "type": "bool"
        }
      ],
      "stateMutability": "view",
      "type": "function"
    },
    {
      "inputs": [],
      "name": "getVotingInfo",
      "outputs": [
        {
          "internalType": "string",
          "name": "title",
          "type": "string"
        },
        {
          "internalType": "uint256",
          "name": "totalVoteCount",
          "type": "uint256"
        },
        {
          "internalType": "uint256",
          "name": "totalCandidates",
          "type": "uint256"
        },
        {
          "internalType": "bool",
          "name": "isVotingOpen",
          "type": "bool"
        }
      ],
      "stateMutability": "view",
      "type": "function"
    },
    {
      "inputs": [],
      "name": "owner",
      "outputs": [
        {
          "internalType": "address",
          "name": "",
          "type": "address"
        }
      ],
      "stateMutability": "view",
      "type": "function"
    },
    {
      "inputs": [
        {
          "internalType": "address",
          "name": "_voterAddress",
          "type": "address"
        }
      ],
      "name": "registerVoter",
      "outputs": [],
      "stateMutability": "nonpayable",
      "type": "function"
    },
    {
      "inputs": [
        {
          "internalType": "bool",
          "name": "_isOpen",
          "type": "bool"
        }
      ],
      "name": "setVotingStatus",
      "outputs": [],
      "stateMutability": "nonpayable",
      "type": "function"
    },
    {
      "inputs": [],
      "name": "totalVotes",
      "outputs": [
        {
          "internalType": "uint256",
          "name": "",
          "type": "uint256"
        }
      ],
      "stateMutability": "view",
      "type": "function"
    },
    {
      "inputs": [
        {
          "internalType": "uint256",
          "name": "_candidateId",
          "type": "uint256"
        }
      ],
      "name": "vote",
      "outputs": [],
      "stateMutability": "nonpayable",
      "type": "function"
    },
    {
      "inputs": [
        {
          "internalType": "address",
          "name": "",
          "type": "address"
        }
      ],
      "name": "voters",
      "outputs": [
        {
          "internalType": "bool",
          "name": "hasVoted",
          "type": "bool"
        },
        {
          "internalType": "uint256",
          "name": "votedCandidateId",
          "type": "uint256"
        },
        {
          "internalType": "bool",
          "name": "isRegistered",
          "type": "bool"
        }
      ],
      "stateMutability": "view",
      "type": "function"
    },
    {
      "inputs": [],
      "name": "votingOpen",
      "outputs": [
        {
          "internalType": "bool",
          "name": "",
          "type": "bool"
        }
      ],
      "stateMutability": "view",
      "type": "function"
    },
    {
      "inputs": [],
      "name": "votingTitle",
      "outputs": [
        {
          "internalType": "string",
          "name": "",
          "type": "string"
        }
      ],
      "stateMutability": "view",
      "type": "function"
    }
  ],
  "bytecode": "0x608060405234801561001057600080fd5b5060405161147438038061147483398101604081905261002f9161007f565b600080546001600160a01b03191633179055600161004d82826101d4565b50506000805460ff60a01b191681556004819055600555610292565b634e487b7160e01b600052604160045260246000fd5b60006020828403121561009157600080fd5b81516001600160401b038111156100a757600080fd5b8201601f810184136100b857600080fd5b80516001600160401b038111156100d1576100d1610069565b604051601f8201601f19908116603f011681016001600160401b03811182821017156100ff576100ff610069565b60405281815282820160200186101561011757600080fd5b60005b828110156101365760208185018101518383018201520161011a565b50600091810160200191909152949350505050565b600181811c9082168061015f57607f821691505b60208210810361017f57634e487b7160e01b600052602260045260246000fd5b50919050565b601f8211156101cf57806000526020600020601f840160051c810160208510156101ac5750805b601f840160051c820191505b818110156101cc57600081556001016101b8565b50505b505050565b81516001600160401b038111156101ed576101ed610069565b610201816101fb845461014b565b84610185565b6020601f821160018114610235576000831561021d5750848201515b600019600385901b1c1916600184901b1784556101cc565b600084815260208120601f198516915b828110156102655787850151825560209485019460019092019101610245565b50848210156102835786840151600019600387901b60f8161c191681555b50505050600190811b01905550565b6111d3806102a16000396000f3fe608060405234801561001057600080fd5b50600436106100f55760003560e01c8063462e91ec11610097578063a3ec138d11610066578063a3ec138d14610208578063a95824b41461025b578063a9a981a31461027f578063d4f50f981461028857600080fd5b8063462e91ec146101a2578063711e6eed146101b55780637478c9fe146101ca5780638da5cb5b146101dd57600080fd5b80633477ee2e116100d35780633477ee2e14610142578063359af4b21461016457806335b8e8201461017c57806338db6dd31461018f57600080fd5b80630121b93f146100fa5780630d15fd771461010f5780632e6997fe1461012b575b600080fd5b61010d610108366004610d03565b6102e4565b005b61011860055481565b6040519081526020015b60405180910390f35b6101336104cc565b60405161012293929190610d9e565b610155610150366004610d03565b610713565b60405161012293929190610e28565b61016c6107be565b6040516101229493929190610e51565b61015561018a366004610d03565b610877565b61010d61019d366004610e82565b6109b2565b61010d6101b0366004610ec8565b610ad5565b6101bd610bf3565b6040516101229190610f81565b61010d6101d8366004610f94565b610c81565b6000546101f0906001600160a01b031681565b6040516001600160a01b039091168152602001610122565b61023c610216366004610e82565b60036020526000908152604090208054600182015460029092015460ff91821692911683565b6040805193151584526020840192909252151590820152606001610122565b60005461026f90600160a01b900460ff1681565b6040519015158152602001610122565b61011860045481565b61023c610296366004610e82565b6001600160a01b03166000908152600360209081526040918290208251606081018452815460ff90811615158083526001840154948301859052600290930154161515930183905292909190565b600054600160a01b900460ff166103375760405162461bcd60e51b81526020600482015260126024820152712b37ba34b7339034b9903737ba1037b832b760711b60448201526064015b60405180910390fd5b3360009081526003602052604090206002015460ff166103995760405162461bcd60e51b815260206004820152601e60248201527f596f7520617265206e6f74207265676973746572656420746f20766f74650000604482015260640161032e565b3360009081526003602052604090205460ff16156103f25760405162461bcd60e51b8152602060048201526016602482015275165bdd481a185d9948185b1c9958591e481d9bdd195960521b604482015260640161032e565b60008111801561040457506004548111155b6104475760405162461bcd60e51b8152602060048201526014602482015273125b9d985b1a590818d85b991a59185d1948125160621b604482015260640161032e565b336000908152600360209081526040808320805460ff1916600190811782550184905583835260029182905282200180549161048283610fcc565b90915550506005805490600061049783610fcc565b9091555050604051819033907fa36cc2bebb74db33e9f88110a07ef56e1b31b24b4c4f51b54b1664266e29f45b90600090a350565b606080606060045467ffffffffffffffff8111156104ec576104ec610eb2565b604051908082528060200260200182016040528015610515578160200160208202803683370190505b50925060045467ffffffffffffffff81111561053357610533610eb2565b60405190808252806020026020018201604052801561056657816020015b60608152602001906001900390816105515790505b50915060045467ffffffffffffffff81111561058457610584610eb2565b6040519080825280602002602001820160405280156105ad578160200160208202803683370190505b50905060015b600454811161070d57600081815260026020526040902054846105d7600184610fe5565b815181106105e7576105e7610ffe565b60200260200101818152505060026000828152602001908152602001600020600101805461061490611014565b80601f016020809104026020016040519081016040528092919081815260200182805461064090611014565b801561068d5780601f106106625761010080835404028352916020019161068d565b820191906000526020600020905b81548152906001019060200180831161067057829003601f168201915b5050505050836001836106a09190610fe5565b815181106106b0576106b0610ffe565b60200260200101819052506002600082815260200190815260200160002060020154826001836106e09190610fe5565b815181106106f0576106f0610ffe565b60209081029190910101528061070581610fcc565b9150506105b3565b50909192565b6002602052600090815260409020805460018201805491929161073590611014565b80601f016020809104026020016040519081016040528092919081815260200182805461076190611014565b80156107ae5780601f10610783576101008083540402835291602001916107ae565b820191906000526020600020905b81548152906001019060200180831161079157829003601f168201915b5050505050908060020154905083565b606060008060006001600554600454600060149054906101000a900460ff168380546107e990611014565b80601f016020809104026020016040519081016040528092919081815260200182805461081590611014565b80156108625780601f1061083757610100808354040283529160200191610862565b820191906000526020600020905b81548152906001019060200180831161084557829003601f168201915b50505050509350935093509350935090919293565b600060606000808411801561088e57506004548411155b6108d15760405162461bcd60e51b8152602060048201526014602482015273125b9d985b1a590818d85b991a59185d1948125160621b604482015260640161032e565b6000600260008681526020019081526020016000206040518060600160405290816000820154815260200160018201805461090b90611014565b80601f016020809104026020016040519081016040528092919081815260200182805461093790611014565b80156109845780601f1061095957610100808354040283529160200191610984565b820191906000526020600020905b81548152906001019060200180831161096757829003601f168201915b5050509183525050600291909101546020918201528151908201516040909201519097919650945092505050565b6000546001600160a01b031633146109dc5760405162461bcd60e51b815260040161032e9061104e565b6001600160a01b03811660009081526003602052604090206002015460ff1615610a485760405162461bcd60e51b815260206004820152601b60248201527f566f74657220697320616c726561647920726567697374657265640000000000604482015260640161032e565b604080516060810182526000808252602080830182815260018486018181526001600160a01b03881680865260039094528685209551865490151560ff1991821617875592519186019190915551600290940180549415159490911693909317909255915190917fb6be2187d059cc2a55fe29e0e503b566e1e0f8c8780096e185429350acffd3dd91a250565b6000546001600160a01b03163314610aff5760405162461bcd60e51b815260040161032e9061104e565b6000815111610b505760405162461bcd60e51b815260206004820152601e60248201527f43616e646964617465206e616d652063616e6e6f7420626520656d7074790000604482015260640161032e565b60048054906000610b6083610fcc565b9091555050604080516060810182526004548082526020808301858152600084860181905292835260029091529290208151815591519091906001820190610ba890826110de565b50604082015181600201559050506004547fe83b2a43e7e82d975c8a0a6d2f045153c869e111136a34d1889ab7b598e396a382604051610be89190610f81565b60405180910390a250565b60018054610c0090611014565b80601f0160208091040260200160405190810160405280929190818152602001828054610c2c90611014565b8015610c795780601f10610c4e57610100808354040283529160200191610c79565b820191906000526020600020905b815481529060010190602001808311610c5c57829003601f168201915b505050505081565b6000546001600160a01b03163314610cab5760405162461bcd60e51b815260040161032e9061104e565b60008054821515600160a01b0260ff60a01b199091161790556040517f9069a1a16ace751e8690f383e12f87b01e8488ba387e626810bd113fef0417f990610cf890831515815260200190565b60405180910390a150565b600060208284031215610d1557600080fd5b5035919050565b600081518084526020840193506020830160005b82811015610d4e578151865260209586019590910190600101610d30565b5093949350505050565b6000815180845260005b81811015610d7e57602081850181015186830182015201610d62565b506000602082860101526020601f19601f83011685010191505092915050565b606081526000610db16060830186610d1c565b828103602084015280855180835260208301915060208160051b8401016020880160005b83811015610e0757601f19868403018552610df1838351610d58565b6020958601959093509190910190600101610dd5565b50508581036040870152610e1b8188610d1c565b9998505050505050505050565b838152606060208201526000610e416060830185610d58565b9050826040830152949350505050565b608081526000610e646080830187610d58565b60208301959095525060408101929092521515606090910152919050565b600060208284031215610e9457600080fd5b81356001600160a01b0381168114610eab57600080fd5b9392505050565b634e487b7160e01b600052604160045260246000fd5b600060208284031215610eda57600080fd5b813567ffffffffffffffff811115610ef157600080fd5b8201601f81018413610f0257600080fd5b803567ffffffffffffffff811115610f1c57610f1c610eb2565b604051601f8201601f19908116603f0116810167ffffffffffffffff81118282101715610f4b57610f4b610eb2565b604052818152828201602001861015610f6357600080fd5b81602084016020830137600091810160200191909152949350505050565b602081526000610eab6020830184610d58565b600060208284031215610fa657600080fd5b81358015158114610eab57600080fd5b634e487b7160e01b600052601160045260246000fd5b600060018201610fde57610fde610fb6565b5060010190565b81810381811115610ff857610ff8610fb6565b92915050565b634e487b7160e01b600052603260045260246000fd5b600181811c9082168061102857607f821691505b60208210810361104857634e487b7160e01b600052602260045260246000fd5b50919050565b60208082526021908201527f4f6e6c79206f776e65722063616e2063616c6c20746869732066756e6374696f6040820152603760f91b606082015260800190565b601f8211156110d957806000526020600020601f840160051c810160208510156110b65750805b601f840160051c820191505b818110156110d657600081556001016110c2565b50505b505050565b815167ffffffffffffffff8111156110f8576110f8610eb2565b61110c816111068454611014565b8461108f565b6020601f82116001811461114057600083156111285750848201515b600019600385901b1c1916600184901b1784556110d6565b600084815260208120601f198516915b828110156111705787850151825560209485019460019092019101611150565b508482101561118e5786840151600019600387901b60f8161c191681555b50505050600190811b0190555056fea264697066735822122057cd5cd37af98ae12102e1842b2e1dfaeb1923b5afc3c79844ee0d5f380a65f064736f6c634300081c0033",
  "linkReferences": {},
  "deployedLinkReferences": {}
}